{
  "contractName": "eVote",
  "abi": [
    {
      "inputs": [],
      "name": "getOwner",
      "outputs": [
        {
          "internalType": "address",
          "name": "",
          "type": "address"
        }
      ],
      "stateMutability": "view",
      "type": "function",
      "constant": true
    },
    {
      "inputs": [],
      "name": "getOwnerAdd",
      "outputs": [
        {
          "internalType": "address",
          "name": "",
          "type": "address"
        }
      ],
      "stateMutability": "view",
      "type": "function",
      "constant": true
    }
  ],
  "bytecode": "0x608060405234801561001057600080fd5b50336000806101000a81548173ffffffffffffffffffffffffffffffffffffffff021916908373ffffffffffffffffffffffffffffffffffffffff16021790555061012d806100606000396000f3fe6080604052348015600f57600080fd5b506004361060325760003560e01c8063893d20e8146037578063d66d2a57146051575b600080fd5b603d606b565b6040516048919060ae565b60405180910390f35b60576094565b6040516062919060ae565b60405180910390f35b60008060009054906101000a900473ffffffffffffffffffffffffffffffffffffffff16905090565b6000609c606b565b905090565b60a88160c7565b82525050565b600060208201905060c1600083018460a1565b92915050565b600060d08260d7565b9050919050565b600073ffffffffffffffffffffffffffffffffffffffff8216905091905056fea2646970667358221220b17b33e8e756f935561202eccf0cd2a63326a8f939b9eafd14d4ea2940956fe064736f6c63430008000033",
  "immutableReferences": {},
  "source": "// SPDX-License-Identifier: MIT\npragma solidity ^0.8.0;\nimport './Ownable.sol';\n\ncontract eVote is Ownable{\n    function getOwnerAdd() view public returns(address){\n        return getOwner();\n    }\n}",
  "sourcePath": "/Users/sourabhagrawal/Documents/Workplace/GitRepo/eVoting/contracts/eVote.sol",
  "compiler": {
    "name": "solc",
    "version": "0.8.0+commit.c7dfd78e.Emscripten.clang"
  },
  "schemaVersion": "3.4.3",
  "updatedAt": "2021-12-03T09:20:41.510Z",
  "networkType": "ethereum",
  "devdoc": {
    "kind": "dev",
    "methods": {},
    "version": 1
  },
  "userdoc": {
    "kind": "user",
    "methods": {},
    "version": 1
  }
}