{
  "contractName": "eVote",
  "abi": [
    {
      "inputs": [],
      "name": "getOwner",
      "outputs": [
        {
          "internalType": "address",
          "name": "",
          "type": "address"
        }
      ],
      "stateMutability": "view",
      "type": "function",
      "constant": true
    },
    {
      "inputs": [
        {
          "internalType": "address",
          "name": "",
          "type": "address"
        }
      ],
      "name": "isVotedMapping",
      "outputs": [
        {
          "internalType": "bool",
          "name": "",
          "type": "bool"
        }
      ],
      "stateMutability": "view",
      "type": "function",
      "constant": true
    },
    {
      "inputs": [
        {
          "internalType": "string",
          "name": "_name",
          "type": "string"
        }
      ],
      "name": "addParticipant",
      "outputs": [],
      "stateMutability": "nonpayable",
      "type": "function"
    },
    {
      "inputs": [],
      "name": "getOwnerAdd",
      "outputs": [
        {
          "internalType": "address",
          "name": "",
          "type": "address"
        }
      ],
      "stateMutability": "view",
      "type": "function",
      "constant": true
    },
    {
      "inputs": [
        {
          "internalType": "string",
          "name": "_name",
          "type": "string"
        }
      ],
      "name": "castVote",
      "outputs": [],
      "stateMutability": "nonpayable",
      "type": "function"
    },
    {
      "inputs": [
        {
          "internalType": "string",
          "name": "_name",
          "type": "string"
        }
      ],
      "name": "getVoteCount",
      "outputs": [
        {
          "internalType": "uint256",
          "name": "",
          "type": "uint256"
        }
      ],
      "stateMutability": "view",
      "type": "function",
      "constant": true
    }
  ],
  "bytecode": "0x608060405234801561001057600080fd5b50336000806101000a81548173ffffffffffffffffffffffffffffffffffffffff021916908373ffffffffffffffffffffffffffffffffffffffff160217905550610827806100606000396000f3fe608060405234801561001057600080fd5b50600436106100625760003560e01c8063069953a714610067578063364de8b6146100975780635697a31d146100b3578063893d20e8146100e35780639cc2d99314610101578063d66d2a571461011d575b600080fd5b610081600480360381019061007c919061044d565b61013b565b60405161008e91906105f9565b60405180910390f35b6100b160048036038101906100ac919061044d565b610163565b005b6100cd60048036038101906100c89190610424565b610232565b6040516100da919061059e565b60405180910390f35b6100eb610252565b6040516100f89190610583565b60405180910390f35b61011b6004803603810190610116919061044d565b61027b565b005b610125610398565b6040516101329190610583565b60405180910390f35b600060038260405161014d919061056c565b9081526020016040518091039020549050919050565b60008054906101000a900473ffffffffffffffffffffffffffffffffffffffff1673ffffffffffffffffffffffffffffffffffffffff163373ffffffffffffffffffffffffffffffffffffffff16146101f1576040517f08c379a00000000000000000000000000000000000000000000000000000000081526004016101e8906105b9565b60405180910390fd5b6000600382604051610203919061056c565b908152602001604051809103902081905550600160026000828254610228919061069c565b9250508190555050565b60016020528060005260406000206000915054906101000a900460ff1681565b60008060009054906101000a900473ffffffffffffffffffffffffffffffffffffffff16905090565b600160003373ffffffffffffffffffffffffffffffffffffffff1673ffffffffffffffffffffffffffffffffffffffff16815260200190815260200160002060009054906101000a900460ff1615610308576040517f08c379a00000000000000000000000000000000000000000000000000000000081526004016102ff906105d9565b60405180910390fd5b600160038260405161031a919061056c565b90815260200160405180910390206000828254610337919061069c565b9250508190555060018060003373ffffffffffffffffffffffffffffffffffffffff1673ffffffffffffffffffffffffffffffffffffffff16815260200190815260200160002060006101000a81548160ff02191690831515021790555050565b60006103a2610252565b905090565b60006103ba6103b584610645565b610614565b9050828152602081018484840111156103d257600080fd5b6103dd84828561073a565b509392505050565b6000813590506103f4816107da565b92915050565b600082601f83011261040b57600080fd5b813561041b8482602086016103a7565b91505092915050565b60006020828403121561043657600080fd5b6000610444848285016103e5565b91505092915050565b60006020828403121561045f57600080fd5b600082013567ffffffffffffffff81111561047957600080fd5b610485848285016103fa565b91505092915050565b610497816106f2565b82525050565b6104a681610704565b82525050565b60006104b782610675565b6104c18185610691565b93506104d1818560208601610749565b80840191505092915050565b60006104ea601683610680565b91507f596f7520617265206e6f7420746865206f776e657221000000000000000000006000830152602082019050919050565b600061052a601283610680565b91507f596f7520616c726561647920766f7465642100000000000000000000000000006000830152602082019050919050565b61056681610730565b82525050565b600061057882846104ac565b915081905092915050565b6000602082019050610598600083018461048e565b92915050565b60006020820190506105b3600083018461049d565b92915050565b600060208201905081810360008301526105d2816104dd565b9050919050565b600060208201905081810360008301526105f28161051d565b9050919050565b600060208201905061060e600083018461055d565b92915050565b6000604051905081810181811067ffffffffffffffff8211171561063b5761063a6107ab565b5b8060405250919050565b600067ffffffffffffffff8211156106605761065f6107ab565b5b601f19601f8301169050602081019050919050565b600081519050919050565b600082825260208201905092915050565b600081905092915050565b60006106a782610730565b91506106b283610730565b9250827fffffffffffffffffffffffffffffffffffffffffffffffffffffffffffffffff038211156106e7576106e661077c565b5b828201905092915050565b60006106fd82610710565b9050919050565b60008115159050919050565b600073ffffffffffffffffffffffffffffffffffffffff82169050919050565b6000819050919050565b82818337600083830152505050565b60005b8381101561076757808201518184015260208101905061074c565b83811115610776576000848401525b50505050565b7f4e487b7100000000000000000000000000000000000000000000000000000000600052601160045260246000fd5b7f4e487b7100000000000000000000000000000000000000000000000000000000600052604160045260246000fd5b6107e3816106f2565b81146107ee57600080fd5b5056fea2646970667358221220b63b8e77f40a4ea62a350964d9f87de84b48adda08f9d2cc3e93adcd1a1a35e164736f6c63430008000033",
  "immutableReferences": {},
  "source": "// SPDX-License-Identifier: MIT\npragma solidity ^0.8.0;\nimport './Ownable.sol';\n\ncontract eVote is Ownable{\n\n    mapping (address => bool) public isVotedMapping;\n    uint participantCount;\n\n    modifier onlyAllowed() {\n        require(!isVotedMapping[msg.sender], \"You already voted!\");\n        _;\n    }\n\n\n    mapping (string => uint) participantMapping;\n\n//  function to add participants - only owner can add.\n    function addParticipant(string memory _name) public onlyOwner{\n        participantMapping[_name] = 0;\n        participantCount += 1;\n    }\n\n    function getOwnerAdd() view public returns(address){\n        return getOwner();\n    }\n\n//  function to cast vote - one add one vote\n    function castVote(string memory _name) public onlyAllowed{\n        participantMapping[_name] += 1;\n        isVotedMapping[msg.sender] = true;\n    }\n\n//  get total vote count of the given participants;\n    function getVoteCount(string memory _name) public view returns(uint){\n        return participantMapping[_name];\n    }\n}",
  "sourcePath": "/Users/sourabhagrawal/Documents/Workplace/GitRepo/eVoting/contracts/eVote.sol",
  "compiler": {
    "name": "solc",
    "version": "0.8.0+commit.c7dfd78e.Emscripten.clang"
  },
  "schemaVersion": "3.4.3",
  "updatedAt": "2021-12-03T20:13:31.835Z",
  "networkType": "ethereum",
  "devdoc": {
    "kind": "dev",
    "methods": {},
    "version": 1
  },
  "userdoc": {
    "kind": "user",
    "methods": {},
    "version": 1
  }
}